{
  "_format": "hh-sol-artifact-1",
  "contractName": "Create2Deployer",
  "sourceName": "contracts/Create2Deployer.sol",
  "abi": [
    {
      "anonymous": false,
      "inputs": [
        {
          "indexed": true,
          "internalType": "address",
          "name": "previousOwner",
          "type": "address"
        },
        {
          "indexed": true,
          "internalType": "address",
          "name": "newOwner",
          "type": "address"
        }
      ],
      "name": "OwnershipTransferred",
      "type": "event"
    },
    {
      "anonymous": false,
      "inputs": [
        {
          "indexed": false,
          "internalType": "address",
          "name": "account",
          "type": "address"
        }
      ],
      "name": "Paused",
      "type": "event"
    },
    {
      "anonymous": false,
      "inputs": [
        {
          "indexed": false,
          "internalType": "address",
          "name": "account",
          "type": "address"
        }
      ],
      "name": "Unpaused",
      "type": "event"
    },
    {
      "inputs": [
        {
          "internalType": "bytes32",
          "name": "salt",
          "type": "bytes32"
        },
        {
          "internalType": "bytes32",
          "name": "codeHash",
          "type": "bytes32"
        }
      ],
      "name": "computeAddress",
      "outputs": [
        {
          "internalType": "address",
          "name": "",
          "type": "address"
        }
      ],
      "stateMutability": "view",
      "type": "function"
    },
    {
      "inputs": [
        {
          "internalType": "bytes32",
          "name": "salt",
          "type": "bytes32"
        },
        {
          "internalType": "bytes32",
          "name": "codeHash",
          "type": "bytes32"
        },
        {
          "internalType": "address",
          "name": "deployer",
          "type": "address"
        }
      ],
      "name": "computeAddressWithDeployer",
      "outputs": [
        {
          "internalType": "address",
          "name": "",
          "type": "address"
        }
      ],
      "stateMutability": "pure",
      "type": "function"
    },
    {
      "inputs": [
        {
          "internalType": "uint256",
          "name": "value",
          "type": "uint256"
        },
        {
          "internalType": "bytes32",
          "name": "salt",
          "type": "bytes32"
        },
        {
          "internalType": "bytes",
          "name": "code",
          "type": "bytes"
        }
      ],
      "name": "deploy",
      "outputs": [],
      "stateMutability": "nonpayable",
      "type": "function"
    },
    {
      "inputs": [
        {
          "internalType": "uint256",
          "name": "value",
          "type": "uint256"
        },
        {
          "internalType": "bytes32",
          "name": "salt",
          "type": "bytes32"
        }
      ],
      "name": "deployERC1820Implementer",
      "outputs": [],
      "stateMutability": "nonpayable",
      "type": "function"
    },
    {
      "inputs": [],
      "name": "owner",
      "outputs": [
        {
          "internalType": "address",
          "name": "",
          "type": "address"
        }
      ],
      "stateMutability": "view",
      "type": "function"
    },
    {
      "inputs": [],
      "name": "pause",
      "outputs": [],
      "stateMutability": "nonpayable",
      "type": "function"
    },
    {
      "inputs": [],
      "name": "paused",
      "outputs": [
        {
          "internalType": "bool",
          "name": "",
          "type": "bool"
        }
      ],
      "stateMutability": "view",
      "type": "function"
    },
    {
      "inputs": [],
      "name": "renounceOwnership",
      "outputs": [],
      "stateMutability": "nonpayable",
      "type": "function"
    },
    {
      "inputs": [
        {
          "internalType": "address",
          "name": "newOwner",
          "type": "address"
        }
      ],
      "name": "transferOwnership",
      "outputs": [],
      "stateMutability": "nonpayable",
      "type": "function"
    },
    {
      "inputs": [],
      "name": "unpause",
      "outputs": [],
      "stateMutability": "nonpayable",
      "type": "function"
    },
    {
      "stateMutability": "payable",
      "type": "receive"
    }
  ],
  "bytecode": "0x608060405234801561001057600080fd5b5061001a3361002c565b6000805460ff60a01b1916905561007c565b600080546001600160a01b038381166001600160a01b0319831681178455604051919092169283917f8be0079c531659141344cd1fd0a4f28419497f9722a3daafe3b4186f6b6457e09190a35050565b610b758061008b6000396000f3fe6080604052600436106100b55760003560e01c806366cfa057116100695780638456cb591161004e5780638456cb59146101d25780638da5cb5b146101e7578063f2fde38b1461021257600080fd5b806366cfa0571461019d578063715018a6146101bd57600080fd5b8063481286e61161009a578063481286e6146100f857806356299481146101425780635c975abb1461016257600080fd5b8063076c37b2146100c15780633f4ba83a146100e357600080fd5b366100bc57005b600080fd5b3480156100cd57600080fd5b506100e16100dc366004610845565b610232565b005b3480156100ef57600080fd5b506100e161028a565b34801561010457600080fd5b50610118610113366004610845565b61029c565b60405173ffffffffffffffffffffffffffffffffffffffff90911681526020015b60405180910390f35b34801561014e57600080fd5b5061011861015d366004610890565b6102af565b34801561016e57600080fd5b5060005474010000000000000000000000000000000000000000900460ff166040519015158152602001610139565b3480156101a957600080fd5b506100e16101b83660046108f4565b6102c4565b3480156101c957600080fd5b506100e16102dd565b3480156101de57600080fd5b506100e16102ef565b3480156101f357600080fd5b5060005473ffffffffffffffffffffffffffffffffffffffff16610118565b34801561021e57600080fd5b506100e161022d3660046109d6565b6102ff565b61023a6103bb565b61028582826040518060200161024f90610838565b7fffffffffffffffffffffffffffffffffffffffffffffffffffffffffffffffe082820381018352601f90910116604052610440565b505050565b61029261059f565b61029a610620565b565b60006102a8838361069d565b9392505050565b60006102bc8484846106a6565b949350505050565b6102cc6103bb565b6102d7838383610440565b50505050565b6102e561059f565b61029a60006106d0565b6102f761059f565b61029a610745565b61030761059f565b73ffffffffffffffffffffffffffffffffffffffff81166103af576040517f08c379a000000000000000000000000000000000000000000000000000000000815260206004820152602660248201527f4f776e61626c653a206e6577206f776e657220697320746865207a65726f206160448201527f646472657373000000000000000000000000000000000000000000000000000060648201526084015b60405180910390fd5b6103b8816106d0565b50565b60005474010000000000000000000000000000000000000000900460ff161561029a576040517f08c379a000000000000000000000000000000000000000000000000000000000815260206004820152601060248201527f5061757361626c653a207061757365640000000000000000000000000000000060448201526064016103a6565b6000834710156104ac576040517f08c379a000000000000000000000000000000000000000000000000000000000815260206004820152601d60248201527f437265617465323a20696e73756666696369656e742062616c616e636500000060448201526064016103a6565b8151600003610517576040517f08c379a000000000000000000000000000000000000000000000000000000000815260206004820181905260248201527f437265617465323a2062797465636f6465206c656e677468206973207a65726f60448201526064016103a6565b8282516020840186f5905073ffffffffffffffffffffffffffffffffffffffff81166102a8576040517f08c379a000000000000000000000000000000000000000000000000000000000815260206004820152601960248201527f437265617465323a204661696c6564206f6e206465706c6f790000000000000060448201526064016103a6565b60005473ffffffffffffffffffffffffffffffffffffffff16331461029a576040517f08c379a000000000000000000000000000000000000000000000000000000000815260206004820181905260248201527f4f776e61626c653a2063616c6c6572206973206e6f7420746865206f776e657260448201526064016103a6565b6106286107b4565b600080547fffffffffffffffffffffff00ffffffffffffffffffffffffffffffffffffffff1690557f5db9ee0a495bf2e6ff9c91a7834c1ba4fdd244a5e8aa4e537bd38aeae4b073aa335b60405173ffffffffffffffffffffffffffffffffffffffff909116815260200160405180910390a1565b60006102a88383305b6000604051836040820152846020820152828152600b8101905060ff815360559020949350505050565b6000805473ffffffffffffffffffffffffffffffffffffffff8381167fffffffffffffffffffffffff0000000000000000000000000000000000000000831681178455604051919092169283917f8be0079c531659141344cd1fd0a4f28419497f9722a3daafe3b4186f6b6457e09190a35050565b61074d6103bb565b600080547fffffffffffffffffffffff00ffffffffffffffffffffffffffffffffffffffff16740100000000000000000000000000000000000000001790557f62e78cea01bee320cd4e420270b5ea74000d11b0c9f74754ebdbfc544b05a2586106733390565b60005474010000000000000000000000000000000000000000900460ff1661029a576040517f08c379a000000000000000000000000000000000000000000000000000000000815260206004820152601460248201527f5061757361626c653a206e6f742070617573656400000000000000000000000060448201526064016103a6565b61014e806109f283390190565b6000806040838503121561085857600080fd5b50508035926020909101359150565b803573ffffffffffffffffffffffffffffffffffffffff8116811461088b57600080fd5b919050565b6000806000606084860312156108a557600080fd5b83359250602084013591506108bc60408501610867565b90509250925092565b7f4e487b7100000000000000000000000000000000000000000000000000000000600052604160045260246000fd5b60008060006060848603121561090957600080fd5b8335925060208401359150604084013567ffffffffffffffff8082111561092f57600080fd5b818601915086601f83011261094357600080fd5b813581811115610955576109556108c5565b604051601f82017fffffffffffffffffffffffffffffffffffffffffffffffffffffffffffffffe0908116603f0116810190838211818310171561099b5761099b6108c5565b816040528281528960208487010111156109b457600080fd5b8260208601602083013760006020848301015280955050505050509250925092565b6000602082840312156109e857600080fd5b6102a88261086756fe608060405234801561001057600080fd5b5061012e806100206000396000f3fe6080604052348015600f57600080fd5b506004361060285760003560e01c8063249cb3fa14602d575b600080fd5b603c603836600460b1565b604e565b60405190815260200160405180910390f35b60008281526020818152604080832073ffffffffffffffffffffffffffffffffffffffff8516845290915281205460ff16608857600060aa565b7fa2ef4600d742022d532d4747cb3547474667d6f13804902513b2ec01c848f4b45b9392505050565b6000806040838503121560c357600080fd5b82359150602083013573ffffffffffffffffffffffffffffffffffffffff8116811460ed57600080fd5b80915050925092905056fea26469706673582212205ffd4e6cede7d06a5daf93d48d0541fc68189eeb16608c1999a82063b666eb1164736f6c63430008130033a26469706673582212201940386be57da7f417ccf1b0d0f7fb1cdce570da987e1443032c9f3b04fd7d0364736f6c63430008130033",
  "linkReferences": {},
  "deployedLinkReferences": {}
}